{
  "contractName": "MultisignatureWallet",
  "abi": [
    {
      "inputs": [
        {
          "internalType": "address[]",
          "name": "_owners",
          "type": "address[]"
        },
        {
          "internalType": "uint256",
          "name": "_numConfirmationRequired",
          "type": "uint256"
        }
      ],
      "stateMutability": "nonpayable",
      "type": "constructor"
    },
    {
      "anonymous": false,
      "inputs": [
        {
          "indexed": true,
          "internalType": "address",
          "name": "owner",
          "type": "address"
        },
        {
          "indexed": true,
          "internalType": "uint256",
          "name": "txIndex",
          "type": "uint256"
        }
      ],
      "name": "ConfirmTransaction",
      "type": "event"
    },
    {
      "anonymous": false,
      "inputs": [
        {
          "indexed": true,
          "internalType": "address",
          "name": "sender",
          "type": "address"
        },
        {
          "indexed": false,
          "internalType": "uint256",
          "name": "amount",
          "type": "uint256"
        },
        {
          "indexed": false,
          "internalType": "uint256",
          "name": "balance",
          "type": "uint256"
        }
      ],
      "name": "Deposit",
      "type": "event"
    },
    {
      "anonymous": false,
      "inputs": [
        {
          "indexed": true,
          "internalType": "address",
          "name": "owner",
          "type": "address"
        },
        {
          "indexed": true,
          "internalType": "uint256",
          "name": "txIndex",
          "type": "uint256"
        }
      ],
      "name": "ExecuteTransaction",
      "type": "event"
    },
    {
      "anonymous": false,
      "inputs": [
        {
          "indexed": true,
          "internalType": "address",
          "name": "owner",
          "type": "address"
        },
        {
          "indexed": true,
          "internalType": "uint256",
          "name": "txIndex",
          "type": "uint256"
        }
      ],
      "name": "RevokeConfirmation",
      "type": "event"
    },
    {
      "anonymous": false,
      "inputs": [
        {
          "indexed": true,
          "internalType": "address",
          "name": "owner",
          "type": "address"
        },
        {
          "indexed": true,
          "internalType": "uint256",
          "name": "txIndex",
          "type": "uint256"
        },
        {
          "indexed": true,
          "internalType": "address",
          "name": "to",
          "type": "address"
        },
        {
          "indexed": false,
          "internalType": "uint256",
          "name": "value",
          "type": "uint256"
        },
        {
          "indexed": false,
          "internalType": "bytes",
          "name": "data",
          "type": "bytes"
        }
      ],
      "name": "SubmitTransaction",
      "type": "event"
    },
    {
      "inputs": [
        {
          "internalType": "uint256",
          "name": "",
          "type": "uint256"
        },
        {
          "internalType": "address",
          "name": "",
          "type": "address"
        }
      ],
      "name": "isConfirmed",
      "outputs": [
        {
          "internalType": "bool",
          "name": "",
          "type": "bool"
        }
      ],
      "stateMutability": "view",
      "type": "function",
      "constant": true
    },
    {
      "inputs": [
        {
          "internalType": "address",
          "name": "",
          "type": "address"
        }
      ],
      "name": "isOwner",
      "outputs": [
        {
          "internalType": "bool",
          "name": "",
          "type": "bool"
        }
      ],
      "stateMutability": "view",
      "type": "function",
      "constant": true
    },
    {
      "inputs": [],
      "name": "numConfirmationRequired",
      "outputs": [
        {
          "internalType": "uint256",
          "name": "",
          "type": "uint256"
        }
      ],
      "stateMutability": "view",
      "type": "function",
      "constant": true
    },
    {
      "inputs": [
        {
          "internalType": "uint256",
          "name": "",
          "type": "uint256"
        }
      ],
      "name": "owners",
      "outputs": [
        {
          "internalType": "address",
          "name": "",
          "type": "address"
        }
      ],
      "stateMutability": "view",
      "type": "function",
      "constant": true
    },
    {
      "inputs": [
        {
          "internalType": "uint256",
          "name": "",
          "type": "uint256"
        }
      ],
      "name": "transactions",
      "outputs": [
        {
          "internalType": "address",
          "name": "to",
          "type": "address"
        },
        {
          "internalType": "uint256",
          "name": "value",
          "type": "uint256"
        },
        {
          "internalType": "bytes",
          "name": "data",
          "type": "bytes"
        },
        {
          "internalType": "bool",
          "name": "executed",
          "type": "bool"
        },
        {
          "internalType": "uint256",
          "name": "numConfirmation",
          "type": "uint256"
        }
      ],
      "stateMutability": "view",
      "type": "function",
      "constant": true
    },
    {
      "stateMutability": "payable",
      "type": "receive",
      "payable": true
    },
    {
      "inputs": [
        {
          "internalType": "address",
          "name": "_to",
          "type": "address"
        },
        {
          "internalType": "uint256",
          "name": "_value",
          "type": "uint256"
        },
        {
          "internalType": "bytes",
          "name": "_data",
          "type": "bytes"
        }
      ],
      "name": "submitTransaction",
      "outputs": [],
      "stateMutability": "nonpayable",
      "type": "function"
    },
    {
      "inputs": [
        {
          "internalType": "uint256",
          "name": "_txIndex",
          "type": "uint256"
        }
      ],
      "name": "confirmTransaction",
      "outputs": [],
      "stateMutability": "nonpayable",
      "type": "function"
    },
    {
      "inputs": [
        {
          "internalType": "uint256",
          "name": "_txIndex",
          "type": "uint256"
        }
      ],
      "name": "executeTransaction",
      "outputs": [],
      "stateMutability": "nonpayable",
      "type": "function"
    },
    {
      "inputs": [],
      "name": "deposit",
      "outputs": [],
      "stateMutability": "payable",
      "type": "function",
      "payable": true
    },
    {
      "inputs": [
        {
          "internalType": "uint256",
          "name": "_txIndex",
          "type": "uint256"
        }
      ],
      "name": "revokeConfirmation",
      "outputs": [],
      "stateMutability": "nonpayable",
      "type": "function"
    },
    {
      "inputs": [],
      "name": "getTransactionCount",
      "outputs": [
        {
          "internalType": "uint256",
          "name": "",
          "type": "uint256"
        }
      ],
      "stateMutability": "view",
      "type": "function",
      "constant": true
    },
    {
      "inputs": [
        {
          "internalType": "uint256",
          "name": "_txIndex",
          "type": "uint256"
        }
      ],
      "name": "getTransaction",
      "outputs": [
        {
          "internalType": "address",
          "name": "to",
          "type": "address"
        },
        {
          "internalType": "uint256",
          "name": "value",
          "type": "uint256"
        },
        {
          "internalType": "bytes",
          "name": "data",
          "type": "bytes"
        },
        {
          "internalType": "bool",
          "name": "executed",
          "type": "bool"
        },
        {
          "internalType": "uint256",
          "name": "numConfirmations",
          "type": "uint256"
        }
      ],
      "stateMutability": "view",
      "type": "function",
      "constant": true
    },
    {
      "inputs": [],
      "name": "getOwners",
      "outputs": [
        {
          "internalType": "address[]",
          "name": "",
          "type": "address[]"
        }
      ],
      "stateMutability": "view",
      "type": "function",
      "constant": true
    }
  ],
  "bytecode": "0x60806040523480156200001157600080fd5b506040516200251a3803806200251a8339818101604052810190620000379190620003da565b60008251116200007e576040517f08c379a0000000000000000000000000000000000000000000000000000000008152600401620000759062000562565b60405180910390fd5b60008111801562000090575081518111155b620000d2576040517f08c379a0000000000000000000000000000000000000000000000000000000008152600401620000c990620005a6565b60405180910390fd5b60005b8251811015620002fa5760008382815181106200011b577f4e487b7100000000000000000000000000000000000000000000000000000000600052603260045260246000fd5b60200260200101519050600073ffffffffffffffffffffffffffffffffffffffff168173ffffffffffffffffffffffffffffffffffffffff16141562000198576040517f08c379a00000000000000000000000000000000000000000000000000000000081526004016200018f90620005c8565b60405180910390fd5b600260008273ffffffffffffffffffffffffffffffffffffffff1673ffffffffffffffffffffffffffffffffffffffff16815260200190815260200160002060009054906101000a900460ff161562000228576040517f08c379a00000000000000000000000000000000000000000000000000000000081526004016200021f9062000584565b60405180910390fd5b6001600260008373ffffffffffffffffffffffffffffffffffffffff1673ffffffffffffffffffffffffffffffffffffffff16815260200190815260200160002060006101000a81548160ff0219169083151502179055506000819080600181540180825580915050600190039060005260206000200160009091909190916101000a81548173ffffffffffffffffffffffffffffffffffffffff021916908373ffffffffffffffffffffffffffffffffffffffff160217905550508080620002f1906200069c565b915050620000d5565b508060018190555050506200077c565b6000620003216200031b846200061e565b620005ea565b905080838252602082019050828560208602820111156200034157600080fd5b60005b858110156200037557816200035a88826200037f565b84526020840193506020830192505060018101905062000344565b5050509392505050565b600081519050620003908162000748565b92915050565b600082601f830112620003a857600080fd5b8151620003ba8482602086016200030a565b91505092915050565b600081519050620003d48162000762565b92915050565b60008060408385031215620003ee57600080fd5b600083015167ffffffffffffffff8111156200040957600080fd5b620004178582860162000396565b92505060206200042a85828601620003c3565b9150509250929050565b600062000443600e836200064d565b91507f6f776572732072657175697265640000000000000000000000000000000000006000830152602082019050919050565b6000620004856010836200064d565b91507f4f776e6572206e6f7420756e69717565000000000000000000000000000000006000830152602082019050919050565b6000620004c76027836200064d565b91507f496e76616c6964206e756d626572206f6620726571756972656420636f6e666960008301527f726d6174696f6e000000000000000000000000000000000000000000000000006020830152604082019050919050565b60006200052f600d836200064d565b91507f696e76616c6964206f776e6572000000000000000000000000000000000000006000830152602082019050919050565b600060208201905081810360008301526200057d8162000434565b9050919050565b600060208201905081810360008301526200059f8162000476565b9050919050565b60006020820190508181036000830152620005c181620004b8565b9050919050565b60006020820190508181036000830152620005e38162000520565b9050919050565b6000604051905081810181811067ffffffffffffffff8211171562000614576200061362000719565b5b8060405250919050565b600067ffffffffffffffff8211156200063c576200063b62000719565b5b602082029050602081019050919050565b600082825260208201905092915050565b60006200066b8262000672565b9050919050565b600073ffffffffffffffffffffffffffffffffffffffff82169050919050565b6000819050919050565b6000620006a98262000692565b91507fffffffffffffffffffffffffffffffffffffffffffffffffffffffffffffffff821415620006df57620006de620006ea565b5b600182019050919050565b7f4e487b7100000000000000000000000000000000000000000000000000000000600052601160045260246000fd5b7f4e487b7100000000000000000000000000000000000000000000000000000000600052604160045260246000fd5b62000753816200065e565b81146200075f57600080fd5b50565b6200076d8162000692565b81146200077957600080fd5b50565b611d8e806200078c6000396000f3fe6080604052600436106100c65760003560e01c80639ace38c21161007f578063c01a8c8411610059578063c01a8c8414610305578063c64274741461032e578063d0e30db014610357578063ee22610b146103615761011d565b80639ace38c21461026e5780639b6a34d3146102af578063a0e67e2b146102da5761011d565b8063025e7c271461012257806320ea8d861461015f5780632e7700f0146101885780632f54bf6e146101b357806333ea3dc8146101f057806380f59a65146102315761011d565b3661011d573373ffffffffffffffffffffffffffffffffffffffff167f90890809c654f11d6e72a28fa60149770a0d11ec6c92319d6ceb2bb0a4ea1a153447604051610113929190611a36565b60405180910390a2005b600080fd5b34801561012e57600080fd5b50610149600480360381019061014491906114b3565b61038a565b6040516101569190611859565b60405180910390f35b34801561016b57600080fd5b50610186600480360381019061018191906114b3565b6103c9565b005b34801561019457600080fd5b5061019d6106f5565b6040516101aa91906119eb565b60405180910390f35b3480156101bf57600080fd5b506101da60048036038101906101d59190611423565b610702565b6040516101e791906118f0565b60405180910390f35b3480156101fc57600080fd5b50610217600480360381019061021291906114b3565b610722565b604051610228959493929190611874565b60405180910390f35b34801561023d57600080fd5b50610258600480360381019061025391906114dc565b61085b565b60405161026591906118f0565b60405180910390f35b34801561027a57600080fd5b50610295600480360381019061029091906114b3565b61088a565b6040516102a6959493929190611874565b60405180910390f35b3480156102bb57600080fd5b506102c4610985565b6040516102d191906119eb565b60405180910390f35b3480156102e657600080fd5b506102ef61098b565b6040516102fc91906118ce565b60405180910390f35b34801561031157600080fd5b5061032c600480360381019061032791906114b3565b610a19565b005b34801561033a57600080fd5b506103556004803603810190610350919061144c565b610d48565b005b61035f610f52565b005b34801561036d57600080fd5b50610388600480360381019061038391906114b3565b610fa4565b005b6000818154811061039a57600080fd5b906000526020600020016000915054906101000a900473ffffffffffffffffffffffffffffffffffffffff1681565b806004805490508110610411576040517f08c379a00000000000000000000000000000000000000000000000000000000081526004016104089061194b565b60405180910390fd5b600260003373ffffffffffffffffffffffffffffffffffffffff1673ffffffffffffffffffffffffffffffffffffffff16815260200190815260200160002060009054906101000a900460ff1661049d576040517f08c379a0000000000000000000000000000000000000000000000000000000008152600401610494906119cb565b60405180910390fd5b8160001515600482815481106104dc577f4e487b7100000000000000000000000000000000000000000000000000000000600052603260045260246000fd5b906000526020600020906005020160030160009054906101000a900460ff1615151461053d576040517f08c379a0000000000000000000000000000000000000000000000000000000008152600401610534906119ab565b60405180910390fd5b600060048481548110610579577f4e487b7100000000000000000000000000000000000000000000000000000000600052603260045260246000fd5b906000526020600020906005020190506003600085815260200190815260200160002060003373ffffffffffffffffffffffffffffffffffffffff1673ffffffffffffffffffffffffffffffffffffffff16815260200190815260200160002060009054906101000a900460ff16610626576040517f08c379a000000000000000000000000000000000000000000000000000000000815260040161061d9061190b565b60405180910390fd5b600181600401600082825461063b9190611b9c565b9250508190555060006003600086815260200190815260200160002060003373ffffffffffffffffffffffffffffffffffffffff1673ffffffffffffffffffffffffffffffffffffffff16815260200190815260200160002060006101000a81548160ff021916908315150217905550833373ffffffffffffffffffffffffffffffffffffffff167ff0dca620e2e81f7841d07bcc105e1704fb01475b278a9d4c236e1c62945edd5560405160405180910390a350505050565b6000600480549050905090565b60026020528060005260406000206000915054906101000a900460ff1681565b6000806060600080600060048781548110610766577f4e487b7100000000000000000000000000000000000000000000000000000000600052603260045260246000fd5b906000526020600020906005020190508060000160009054906101000a900473ffffffffffffffffffffffffffffffffffffffff168160010154826002018360030160009054906101000a900460ff1684600401548280546107c790611c5a565b80601f01602080910402602001604051908101604052809291908181526020018280546107f390611c5a565b80156108405780601f1061081557610100808354040283529160200191610840565b820191906000526020600020905b81548152906001019060200180831161082357829003601f168201915b50505050509250955095509550955095505091939590929450565b60036020528160005260406000206020528060005260406000206000915091509054906101000a900460ff1681565b6004818154811061089a57600080fd5b90600052602060002090600502016000915090508060000160009054906101000a900473ffffffffffffffffffffffffffffffffffffffff16908060010154908060020180546108e990611c5a565b80601f016020809104026020016040519081016040528092919081815260200182805461091590611c5a565b80156109625780601f1061093757610100808354040283529160200191610962565b820191906000526020600020905b81548152906001019060200180831161094557829003601f168201915b5050505050908060030160009054906101000a900460ff16908060040154905085565b60015481565b60606000805480602002602001604051908101604052809291908181526020018280548015610a0f57602002820191906000526020600020905b8160009054906101000a900473ffffffffffffffffffffffffffffffffffffffff1673ffffffffffffffffffffffffffffffffffffffff16815260200190600101908083116109c5575b5050505050905090565b600260003373ffffffffffffffffffffffffffffffffffffffff1673ffffffffffffffffffffffffffffffffffffffff16815260200190815260200160002060009054906101000a900460ff16610aa5576040517f08c379a0000000000000000000000000000000000000000000000000000000008152600401610a9c906119cb565b60405180910390fd5b806004805490508110610aed576040517f08c379a0000000000000000000000000000000000000000000000000000000008152600401610ae49061194b565b60405180910390fd5b816000151560048281548110610b2c577f4e487b7100000000000000000000000000000000000000000000000000000000600052603260045260246000fd5b906000526020600020906005020160030160009054906101000a900460ff16151514610b8d576040517f08c379a0000000000000000000000000000000000000000000000000000000008152600401610b84906119ab565b60405180910390fd5b826003600082815260200190815260200160002060003373ffffffffffffffffffffffffffffffffffffffff1673ffffffffffffffffffffffffffffffffffffffff16815260200190815260200160002060009054906101000a900460ff1615610c2c576040517f08c379a0000000000000000000000000000000000000000000000000000000008152600401610c239061196b565b60405180910390fd5b600060048581548110610c68577f4e487b7100000000000000000000000000000000000000000000000000000000600052603260045260246000fd5b9060005260206000209060050201905060016003600087815260200190815260200160002060003373ffffffffffffffffffffffffffffffffffffffff1673ffffffffffffffffffffffffffffffffffffffff16815260200190815260200160002060006101000a81548160ff0219169083151502179055506001816004016000828254610cf69190611b46565b92505081905550843373ffffffffffffffffffffffffffffffffffffffff167f5cbe105e36805f7820e291f799d5794ff948af2a5f664e580382defb6339004160405160405180910390a35050505050565b600260003373ffffffffffffffffffffffffffffffffffffffff1673ffffffffffffffffffffffffffffffffffffffff16815260200190815260200160002060009054906101000a900460ff16610dd4576040517f08c379a0000000000000000000000000000000000000000000000000000000008152600401610dcb906119cb565b60405180910390fd5b6000600480549050905060046040518060a001604052808673ffffffffffffffffffffffffffffffffffffffff1681526020018581526020018481526020016000151581526020016000815250908060018154018082558091505060019003906000526020600020906005020160009091909190915060008201518160000160006101000a81548173ffffffffffffffffffffffffffffffffffffffff021916908373ffffffffffffffffffffffffffffffffffffffff160217905550602082015181600101556040820151816002019080519060200190610eb79291906112ee565b5060608201518160030160006101000a81548160ff0219169083151502179055506080820151816004015550508373ffffffffffffffffffffffffffffffffffffffff16813373ffffffffffffffffffffffffffffffffffffffff167fd5a05bf70715ad82a09a756320284a1b54c9ff74cd0f8cce6219e79b563fe59d8686604051610f44929190611a06565b60405180910390a450505050565b3373ffffffffffffffffffffffffffffffffffffffff167f90890809c654f11d6e72a28fa60149770a0d11ec6c92319d6ceb2bb0a4ea1a153447604051610f9a929190611a36565b60405180910390a2565b600260003373ffffffffffffffffffffffffffffffffffffffff1673ffffffffffffffffffffffffffffffffffffffff16815260200190815260200160002060009054906101000a900460ff16611030576040517f08c379a0000000000000000000000000000000000000000000000000000000008152600401611027906119cb565b60405180910390fd5b806004805490508110611078576040517f08c379a000000000000000000000000000000000000000000000000000000000815260040161106f9061194b565b60405180910390fd5b8160001515600482815481106110b7577f4e487b7100000000000000000000000000000000000000000000000000000000600052603260045260246000fd5b906000526020600020906005020160030160009054906101000a900460ff16151514611118576040517f08c379a000000000000000000000000000000000000000000000000000000000815260040161110f906119ab565b60405180910390fd5b600060048481548110611154577f4e487b7100000000000000000000000000000000000000000000000000000000600052603260045260246000fd5b90600052602060002090600502019050600154816004015410156111ad576040517f08c379a00000000000000000000000000000000000000000000000000000000081526004016111a49061198b565b60405180910390fd5b60018160030160006101000a81548160ff02191690831515021790555060008160000160009054906101000a900473ffffffffffffffffffffffffffffffffffffffff1673ffffffffffffffffffffffffffffffffffffffff1682600101548360020160405161121d9190611842565b60006040518083038185875af1925050503d806000811461125a576040519150601f19603f3d011682016040523d82523d6000602084013e61125f565b606091505b50509050806112a3576040517f08c379a000000000000000000000000000000000000000000000000000000000815260040161129a9061192b565b60405180910390fd5b843373ffffffffffffffffffffffffffffffffffffffff167f5445f318f4f5fcfb66592e68e0cc5822aa15664039bd5f0ffde24c5a8142b1ac60405160405180910390a35050505050565b8280546112fa90611c5a565b90600052602060002090601f01602090048101928261131c5760008555611363565b82601f1061133557805160ff1916838001178555611363565b82800160010185558215611363579182015b82811115611362578251825591602001919060010190611347565b5b5090506113709190611374565b5090565b5b8082111561138d576000816000905550600101611375565b5090565b60006113a461139f84611a90565b611a5f565b9050828152602081018484840111156113bc57600080fd5b6113c7848285611c18565b509392505050565b6000813590506113de81611d2a565b92915050565b600082601f8301126113f557600080fd5b8135611405848260208601611391565b91505092915050565b60008135905061141d81611d41565b92915050565b60006020828403121561143557600080fd5b6000611443848285016113cf565b91505092915050565b60008060006060848603121561146157600080fd5b600061146f868287016113cf565b93505060206114808682870161140e565b925050604084013567ffffffffffffffff81111561149d57600080fd5b6114a9868287016113e4565b9150509250925092565b6000602082840312156114c557600080fd5b60006114d38482850161140e565b91505092915050565b600080604083850312156114ef57600080fd5b60006114fd8582860161140e565b925050602061150e858286016113cf565b9150509250929050565b60006115248383611530565b60208301905092915050565b61153981611bd0565b82525050565b61154881611bd0565b82525050565b600061155982611ae5565b6115638185611b08565b935061156e83611ac0565b8060005b8381101561159f5781516115868882611518565b975061159183611afb565b925050600181019050611572565b5085935050505092915050565b6115b581611be2565b82525050565b60006115c682611af0565b6115d08185611b19565b93506115e0818560208601611c27565b6115e981611d19565b840191505092915050565b6000815461160181611c5a565b61160b8186611b2a565b9450600182166000811461162657600181146116375761166a565b60ff1983168652818601935061166a565b61164085611ad0565b60005b8381101561166257815481890152600182019150602081019050611643565b838801955050505b50505092915050565b6000611680601583611b35565b91507f486176656e277420636f6e6669726d65642079657400000000000000000000006000830152602082019050919050565b60006116c0600983611b35565b91507f7478206661696c656400000000000000000000000000000000000000000000006000830152602082019050919050565b6000611700601183611b35565b91507f747820646f6573206e6f742065786973740000000000000000000000000000006000830152602082019050919050565b6000611740601483611b35565b91507f747820616c726561647920636f6e6669726d65640000000000000000000000006000830152602082019050919050565b6000611780601483611b35565b91507f6e6f7420656e6f756768207369676e61747572650000000000000000000000006000830152602082019050919050565b60006117c0601383611b35565b91507f747820616c7265616479206578656375746564000000000000000000000000006000830152602082019050919050565b6000611800600983611b35565b91507f6e6f74206f776e657200000000000000000000000000000000000000000000006000830152602082019050919050565b61183c81611c0e565b82525050565b600061184e82846115f4565b915081905092915050565b600060208201905061186e600083018461153f565b92915050565b600060a082019050611889600083018861153f565b6118966020830187611833565b81810360408301526118a881866115bb565b90506118b760608301856115ac565b6118c46080830184611833565b9695505050505050565b600060208201905081810360008301526118e8818461154e565b905092915050565b600060208201905061190560008301846115ac565b92915050565b6000602082019050818103600083015261192481611673565b9050919050565b60006020820190508181036000830152611944816116b3565b9050919050565b60006020820190508181036000830152611964816116f3565b9050919050565b6000602082019050818103600083015261198481611733565b9050919050565b600060208201905081810360008301526119a481611773565b9050919050565b600060208201905081810360008301526119c4816117b3565b9050919050565b600060208201905081810360008301526119e4816117f3565b9050919050565b6000602082019050611a006000830184611833565b92915050565b6000604082019050611a1b6000830185611833565b8181036020830152611a2d81846115bb565b90509392505050565b6000604082019050611a4b6000830185611833565b611a586020830184611833565b9392505050565b6000604051905081810181811067ffffffffffffffff82111715611a8657611a85611cea565b5b8060405250919050565b600067ffffffffffffffff821115611aab57611aaa611cea565b5b601f19601f8301169050602081019050919050565b6000819050602082019050919050565b60008190508160005260206000209050919050565b600081519050919050565b600081519050919050565b6000602082019050919050565b600082825260208201905092915050565b600082825260208201905092915050565b600081905092915050565b600082825260208201905092915050565b6000611b5182611c0e565b9150611b5c83611c0e565b9250827fffffffffffffffffffffffffffffffffffffffffffffffffffffffffffffffff03821115611b9157611b90611c8c565b5b828201905092915050565b6000611ba782611c0e565b9150611bb283611c0e565b925082821015611bc557611bc4611c8c565b5b828203905092915050565b6000611bdb82611bee565b9050919050565b60008115159050919050565b600073ffffffffffffffffffffffffffffffffffffffff82169050919050565b6000819050919050565b82818337600083830152505050565b60005b83811015611c45578082015181840152602081019050611c2a565b83811115611c54576000848401525b50505050565b60006002820490506001821680611c7257607f821691505b60208210811415611c8657611c85611cbb565b5b50919050565b7f4e487b7100000000000000000000000000000000000000000000000000000000600052601160045260246000fd5b7f4e487b7100000000000000000000000000000000000000000000000000000000600052602260045260246000fd5b7f4e487b7100000000000000000000000000000000000000000000000000000000600052604160045260246000fd5b6000601f19601f8301169050919050565b611d3381611bd0565b8114611d3e57600080fd5b50565b611d4a81611c0e565b8114611d5557600080fd5b5056fea26469706673582212202a35281906e5dca653daffae7a1473d201bef820befb920a20d19329b6d9243864736f6c63430008000033",
  "immutableReferences": {},
  "source": "// SPDX-License-Identifier: MIT\r\npragma solidity >=0.7.0 <0.9.0;\r\n\r\ncontract MultisignatureWallet{\r\n    event Deposit(address indexed sender, uint amount, uint balance);\r\n    // thun tin cho front-end=> bt c trans no i state m state  cn hin th ra th ta to event cho n\r\n    event SubmitTransaction(\r\n        address indexed owner,\r\n        uint indexed txIndex,\r\n        address indexed to,\r\n        uint value,\r\n        bytes data\r\n    );\r\n    event ConfirmTransaction(address indexed owner, uint indexed txIndex);\r\n    event RevokeConfirmation(address indexed owner, uint indexed txIndex);\r\n    event ExecuteTransaction(address indexed owner, uint indexed txIndex);\r\n    \r\n    address[] public owners;\r\n    uint public numConfirmationRequired;\r\n    mapping(address=>bool) public isOwner;\r\n    \r\n    struct Transaction{\r\n        address to;\r\n        uint value;\r\n        bytes data;\r\n        bool executed;\r\n        uint numConfirmation;\r\n    }\r\n    mapping(uint => mapping(address => bool)) public isConfirmed;\r\n    Transaction[] public transactions;\r\n    \r\n    constructor(address[] memory _owners, uint _numConfirmationRequired) {\r\n        require(_owners.length > 0, \"owers required\");\r\n        require(_numConfirmationRequired > 0 && _numConfirmationRequired <= _owners.length,\r\n                \"Invalid number of required confirmation\");\r\n        for(uint i = 0; i < _owners.length; i++){\r\n            address owner = _owners[i];\r\n            require(owner != address(0), \"invalid owner\");\r\n            require(!isOwner[owner],\"Owner not unique\");\r\n            isOwner[owner] = true;\r\n            owners.push(owner);\r\n        }\r\n        numConfirmationRequired = _numConfirmationRequired;\r\n    }\r\n    \r\n    modifier onlyOwner(){\r\n        require(isOwner[msg.sender], \"not owner\");\r\n        _;\r\n    }\r\n    function submitTransaction(address _to, uint _value, bytes memory _data) \r\n        public onlyOwner \r\n    {\r\n        uint txIndex = transactions.length;\r\n        transactions.push(Transaction({\r\n            to: _to,\r\n            value: _value,\r\n            data: _data,\r\n            executed: false,\r\n            numConfirmation: 0\r\n        }));\r\n        emit SubmitTransaction(msg.sender, txIndex, _to, _value, _data);\r\n    }\r\n    modifier txExist(uint _txIndex){\r\n        require(_txIndex < transactions.length,\"tx does not exist\");\r\n        _;\r\n    }\r\n    modifier notExecuted(uint _txIndex){\r\n        require(transactions[_txIndex].executed == false, \"tx already executed\");\r\n        _;\r\n    }\r\n    modifier notConfirmed(uint _txIndex){\r\n        require(!isConfirmed[_txIndex][msg.sender], \"tx already confirmed\");\r\n        _;\r\n    }\r\n    function confirmTransaction(uint _txIndex) \r\n        public onlyOwner txExist(_txIndex) notExecuted(_txIndex) notConfirmed(_txIndex)\r\n    {\r\n        Transaction storage transaction = transactions[_txIndex];\r\n        isConfirmed[_txIndex][msg.sender] = true;\r\n        transaction.numConfirmation += 1;\r\n        emit ConfirmTransaction(msg.sender, _txIndex);\r\n    }\r\n    function executeTransaction(uint _txIndex)\r\n        public\r\n        onlyOwner\r\n        txExist(_txIndex)\r\n        notExecuted(_txIndex)\r\n    {\r\n        Transaction storage transaction = transactions[_txIndex];\r\n        require(transaction.numConfirmation >= numConfirmationRequired, \"not enough signature\");\r\n        transaction.executed = true;\r\n        (bool success, ) = transaction.to.call{value: transaction.value}(transaction.data);\r\n        require(success, \"tx failed\");\r\n        emit ExecuteTransaction(msg.sender, _txIndex);\r\n    }\r\n    receive () external payable{\r\n        emit Deposit(msg.sender, msg.value, address(this).balance);\r\n    }\r\n    \r\n    //helper function\r\n    function deposit() payable external{\r\n        emit Deposit(msg.sender, msg.value, address(this).balance);\r\n    }\r\n    function revokeConfirmation(uint _txIndex) public txExist(_txIndex) onlyOwner notExecuted(_txIndex){\r\n        Transaction storage transaction = transactions[_txIndex];\r\n        require(isConfirmed[_txIndex][msg.sender], \"Haven't confirmed yet\");\r\n        transaction.numConfirmation -= 1;\r\n        isConfirmed[_txIndex][msg.sender] = false;\r\n        emit RevokeConfirmation(msg.sender, _txIndex);\r\n    }\r\n    function getTransactionCount() public view returns (uint) {\r\n        return transactions.length;\r\n    }\r\n    function getTransaction(uint _txIndex) public view\r\n        returns (address to, uint value, bytes memory data, bool executed, uint numConfirmations){\r\n        //ch   front end n tr ra bin object c cc trng ta ly nh trong return\r\n        Transaction storage transaction = transactions[_txIndex];\r\n        return (transaction.to,\r\n            transaction.value,\r\n            transaction.data,\r\n            transaction.executed,\r\n            transaction.numConfirmation);\r\n    }\r\n    function getOwners() public view returns (address[] memory) {\r\n        return owners;\r\n    }\r\n}\r\n",
  "sourcePath": "B:\\Solidity\\Solidity Other\\UseTruffle + Tool\\Full Project Truffle Multisig Wallet\\Truffe Project\\contracts\\MultiSigWallet.sol",
  "compiler": {
    "name": "solc",
    "version": "0.8.0+commit.c7dfd78e.Emscripten.clang"
  },
  "schemaVersion": "3.4.3",
  "updatedAt": "2021-12-27T09:02:22.579Z",
  "networkType": "ethereum",
  "devdoc": {
    "kind": "dev",
    "methods": {},
    "version": 1
  },
  "userdoc": {
    "kind": "user",
    "methods": {},
    "version": 1
  }
}