{
  "contractName": "DeveloperFactory",
  "abi": [
    {
      "anonymous": false,
      "inputs": [
        {
          "indexed": false,
          "internalType": "uint256",
          "name": "devId",
          "type": "uint256"
        },
        {
          "indexed": false,
          "internalType": "string",
          "name": "name",
          "type": "string"
        },
        {
          "indexed": false,
          "internalType": "uint256",
          "name": "age",
          "type": "uint256"
        }
      ],
      "name": "NewDeveloper",
      "type": "event"
    },
    {
      "constant": true,
      "inputs": [
        {
          "internalType": "uint256",
          "name": "",
          "type": "uint256"
        }
      ],
      "name": "devToOwner",
      "outputs": [
        {
          "internalType": "address",
          "name": "",
          "type": "address"
        }
      ],
      "payable": false,
      "stateMutability": "view",
      "type": "function"
    },
    {
      "constant": true,
      "inputs": [
        {
          "internalType": "uint256",
          "name": "",
          "type": "uint256"
        }
      ],
      "name": "developers",
      "outputs": [
        {
          "internalType": "string",
          "name": "name",
          "type": "string"
        },
        {
          "internalType": "uint256",
          "name": "id",
          "type": "uint256"
        },
        {
          "internalType": "uint256",
          "name": "age",
          "type": "uint256"
        }
      ],
      "payable": false,
      "stateMutability": "view",
      "type": "function"
    },
    {
      "constant": true,
      "inputs": [
        {
          "internalType": "address",
          "name": "",
          "type": "address"
        }
      ],
      "name": "ownerDevCount",
      "outputs": [
        {
          "internalType": "uint256",
          "name": "",
          "type": "uint256"
        }
      ],
      "payable": false,
      "stateMutability": "view",
      "type": "function"
    },
    {
      "constant": false,
      "inputs": [
        {
          "internalType": "string",
          "name": "_name",
          "type": "string"
        },
        {
          "internalType": "uint256",
          "name": "_age",
          "type": "uint256"
        }
      ],
      "name": "createRandomDeveloper",
      "outputs": [],
      "payable": true,
      "stateMutability": "payable",
      "type": "function"
    },
    {
      "constant": true,
      "inputs": [],
      "name": "getAllDevelopers",
      "outputs": [
        {
          "internalType": "uint256",
          "name": "",
          "type": "uint256"
        }
      ],
      "payable": false,
      "stateMutability": "view",
      "type": "function"
    },
    {
      "constant": true,
      "inputs": [],
      "name": "sayHello",
      "outputs": [
        {
          "internalType": "string",
          "name": "",
          "type": "string"
        }
      ],
      "payable": false,
      "stateMutability": "pure",
      "type": "function"
    }
  ],
  "bytecode": "0x60806040526064600055600560015534801561001a57600080fd5b5061085e8061002a6000396000f3fe6080604052600436106100555760003560e01c80630f79e1c71461005a5780632f6547001461011f578063a8c2167b14610184578063dc05990f146101af578063ef5fb05b1461022a578063eff25cd6146102ba575b600080fd5b61011d6004803603604081101561007057600080fd5b810190808035906020019064010000000081111561008d57600080fd5b82018360208201111561009f57600080fd5b803590602001918460018302840111640100000000831117156100c157600080fd5b91908080601f016020809104026020016040519081016040528093929190818152602001838380828437600081840152601f19601f8201169050808301925050505050505091929192908035906020019092919050505061037c565b005b34801561012b57600080fd5b5061016e6004803603602081101561014257600080fd5b81019080803573ffffffffffffffffffffffffffffffffffffffff1690602001909291905050506103c9565b6040518082815260200191505060405180910390f35b34801561019057600080fd5b506101996103e1565b6040518082815260200191505060405180910390f35b3480156101bb57600080fd5b506101e8600480360360208110156101d257600080fd5b81019080803590602001909291905050506103ee565b604051808273ffffffffffffffffffffffffffffffffffffffff1673ffffffffffffffffffffffffffffffffffffffff16815260200191505060405180910390f35b34801561023657600080fd5b5061023f610421565b6040518080602001828103825283818151815260200191508051906020019080838360005b8381101561027f578082015181840152602081019050610264565b50505050905090810190601f1680156102ac5780820380516001836020036101000a031916815260200191505b509250505060405180910390f35b3480156102c657600080fd5b506102f3600480360360208110156102dd57600080fd5b810190808035906020019092919050505061045e565b6040518080602001848152602001838152602001828103825285818151815260200191508051906020019080838360005b8381101561033f578082015181840152602081019050610324565b50505050905090810190601f16801561036c5780820380516001836020036101000a031916815260200191505b5094505050505060405180910390f35b600154811161038a57600080fd5b600054811061039857600080fd5b674563918244f4000034146103ac57600080fd5b60006103b78361052d565b90506103c48382846105b0565b505050565b60046020528060005260406000206000915090505481565b6000600280549050905090565b60036020528060005260406000206000915054906101000a900473ffffffffffffffffffffffffffffffffffffffff1681565b60606040518060400160405280600b81526020017f48656c6c6f20576f726c64000000000000000000000000000000000000000000815250905090565b6002818154811061046b57fe5b9060005260206000209060030201600091509050806000018054600181600116156101000203166002900480601f0160208091040260200160405190810160405280929190818152602001828054600181600116156101000203166002900480156105175780601f106104ec57610100808354040283529160200191610517565b820191906000526020600020905b8154815290600101906020018083116104fa57829003601f168201915b5050505050908060010154908060020154905083565b600080826040516020018082805190602001908083835b602083106105675780518252602082019150602081019050602083039250610544565b6001836020036101000a0380198251168184511680821785525050505050509050019150506040516020818303038152906040528051906020012060001c905080915050919050565b60008290506002604051806060016040528086815260200185815260200184815250908060018154018082558091505090600182039060005260206000209060030201600090919290919091506000820151816000019080519060200190610619929190610784565b506020820151816001015560408201518160020155505050600460003373ffffffffffffffffffffffffffffffffffffffff1673ffffffffffffffffffffffffffffffffffffffff16815260200190815260200160002060008154809291906001019190505550336003600083815260200190815260200160002060006101000a81548173ffffffffffffffffffffffffffffffffffffffff021916908373ffffffffffffffffffffffffffffffffffffffff1602179055507f8c0a7bb5dca6fe8f30f637dd90fca437ba2f8cfcada8ad51dc72c6316cd49e9e8185846040518084815260200180602001838152602001828103825284818151815260200191508051906020019080838360005b83811015610742578082015181840152602081019050610727565b50505050905090810190601f16801561076f5780820380516001836020036101000a031916815260200191505b5094505050505060405180910390a150505050565b828054600181600116156101000203166002900490600052602060002090601f016020900481019282601f106107c557805160ff19168380011785556107f3565b828001600101855582156107f3579182015b828111156107f25782518255916020019190600101906107d7565b5b5090506108009190610804565b5090565b61082691905b8082111561082257600081600090555060010161080a565b5090565b9056fea265627a7a723158206c3ca7512132f4884c6eb0fad88f23d84ead0a1ed66b8bd42f4432967c333c0364736f6c63430005100032",
  "source": "// SPDX-License-Identifier: MIT\r\npragma solidity >=0.4.0 < 0.9.0;\r\n\r\ncontract DeveloperFactory {\r\n    event NewDeveloper(uint devId, string name, uint age);\r\n\r\n    uint maxAge = 100;\r\n    uint minAge = 5;\r\n\r\n    struct Developer {\r\n        string name;\r\n        uint id;\r\n        uint age;\r\n    }\r\n\r\n    Developer[] public developers;\r\n\r\n    mapping (uint => address) public devToOwner;\r\n    mapping (address => uint) public ownerDevCount;\r\n\r\n    function _createDeveloper(string memory _name, uint _id, uint _age) private {\r\n        uint id = _id;\r\n        developers.push( Developer( _name, _id, _age ) );\r\n        ownerDevCount[msg.sender]++;\r\n        devToOwner[id] = msg.sender;\r\n        emit NewDeveloper(id, _name, _age);\r\n    }\r\n\r\n    function _generateRandomId( string memory _str ) private pure returns (uint){\r\n        uint rand = uint(keccak256(abi.encodePacked(_str)));\r\n        return rand;\r\n    }\r\n\r\n    function createRandomDeveloper( string memory _name, uint _age ) public payable {\r\n        require(_age > minAge);\r\n        require(_age < maxAge);\r\n        require(msg.value == 5000000000000000000);\r\n        uint randId = _generateRandomId( _name );\r\n        _createDeveloper(_name, randId, _age );\r\n    }\r\n\r\n    function getAllDevelopers() public view returns (uint) {\r\n        return developers.length;\r\n    }\r\n\r\n    function sayHello() public pure returns(string memory){\r\n        return \"Hello World\";\r\n    }\r\n}",
  "sourcePath": "B:\\Solidity\\Solidity Other\\UseTruffle + Tool\\Truffle + Ganache-CLI + Web3.js\\contracts\\DeveloperFactory.sol",
  "compiler": {
    "name": "solc",
    "version": "0.5.16+commit.9c3226ce.Emscripten.clang"
  },
  "schemaVersion": "3.4.3",
  "updatedAt": "2021-10-30T15:19:15.801Z",
  "networkType": "ethereum",
  "devdoc": {
    "methods": {}
  },
  "userdoc": {
    "methods": {}
  }
}