{
  "_format": "hh-sol-artifact-1",
  "contractName": "UserData",
  "sourceName": "contracts/UserData.sol",
  "abi": [
    {
      "inputs": [],
      "stateMutability": "nonpayable",
      "type": "constructor"
    },
    {
      "anonymous": false,
      "inputs": [
        {
          "indexed": true,
          "internalType": "uint256",
          "name": "age",
          "type": "uint256"
        },
        {
          "indexed": true,
          "internalType": "int256",
          "name": "id",
          "type": "int256"
        },
        {
          "indexed": false,
          "internalType": "string",
          "name": "name",
          "type": "string"
        },
        {
          "indexed": false,
          "internalType": "string",
          "name": "description",
          "type": "string"
        },
        {
          "indexed": false,
          "internalType": "string",
          "name": "avatar",
          "type": "string"
        },
        {
          "indexed": true,
          "internalType": "address",
          "name": "newAddress",
          "type": "address"
        }
      ],
      "name": "AddCurrent",
      "type": "event"
    },
    {
      "anonymous": false,
      "inputs": [
        {
          "indexed": false,
          "internalType": "address",
          "name": "sender",
          "type": "address"
        },
        {
          "indexed": false,
          "internalType": "uint256",
          "name": "value",
          "type": "uint256"
        }
      ],
      "name": "Deposit",
      "type": "event"
    },
    {
      "stateMutability": "payable",
      "type": "fallback"
    },
    {
      "inputs": [
        {
          "internalType": "uint256",
          "name": "age",
          "type": "uint256"
        },
        {
          "internalType": "string",
          "name": "name",
          "type": "string"
        },
        {
          "internalType": "string",
          "name": "description",
          "type": "string"
        },
        {
          "internalType": "string",
          "name": "avatar",
          "type": "string"
        },
        {
          "internalType": "address",
          "name": "newAddress",
          "type": "address"
        }
      ],
      "name": "addCurrent",
      "outputs": [],
      "stateMutability": "nonpayable",
      "type": "function"
    },
    {
      "inputs": [
        {
          "internalType": "address",
          "name": "",
          "type": "address"
        }
      ],
      "name": "data",
      "outputs": [
        {
          "internalType": "int256",
          "name": "id",
          "type": "int256"
        },
        {
          "internalType": "uint256",
          "name": "age",
          "type": "uint256"
        },
        {
          "internalType": "string",
          "name": "name",
          "type": "string"
        },
        {
          "internalType": "string",
          "name": "description",
          "type": "string"
        },
        {
          "internalType": "string",
          "name": "avatar",
          "type": "string"
        }
      ],
      "stateMutability": "view",
      "type": "function"
    },
    {
      "inputs": [],
      "name": "deposit",
      "outputs": [],
      "stateMutability": "payable",
      "type": "function"
    },
    {
      "inputs": [],
      "name": "getNumberOfUser",
      "outputs": [
        {
          "internalType": "int256",
          "name": "",
          "type": "int256"
        }
      ],
      "stateMutability": "view",
      "type": "function"
    },
    {
      "inputs": [
        {
          "internalType": "address",
          "name": "addr",
          "type": "address"
        }
      ],
      "name": "getUser",
      "outputs": [
        {
          "components": [
            {
              "internalType": "int256",
              "name": "id",
              "type": "int256"
            },
            {
              "internalType": "uint256",
              "name": "age",
              "type": "uint256"
            },
            {
              "internalType": "string",
              "name": "name",
              "type": "string"
            },
            {
              "internalType": "string",
              "name": "description",
              "type": "string"
            },
            {
              "internalType": "string",
              "name": "avatar",
              "type": "string"
            }
          ],
          "internalType": "struct UserData.Info",
          "name": "",
          "type": "tuple"
        }
      ],
      "stateMutability": "view",
      "type": "function"
    },
    {
      "inputs": [
        {
          "internalType": "uint256",
          "name": "",
          "type": "uint256"
        }
      ],
      "name": "listAddress",
      "outputs": [
        {
          "internalType": "address",
          "name": "",
          "type": "address"
        }
      ],
      "stateMutability": "view",
      "type": "function"
    },
    {
      "inputs": [],
      "name": "owner",
      "outputs": [
        {
          "internalType": "address",
          "name": "",
          "type": "address"
        }
      ],
      "stateMutability": "view",
      "type": "function"
    },
    {
      "inputs": [
        {
          "internalType": "uint256",
          "name": "age",
          "type": "uint256"
        },
        {
          "internalType": "string",
          "name": "name",
          "type": "string"
        },
        {
          "internalType": "string",
          "name": "description",
          "type": "string"
        },
        {
          "internalType": "string",
          "name": "avatar",
          "type": "string"
        },
        {
          "internalType": "address",
          "name": "newAddress",
          "type": "address"
        }
      ],
      "name": "updateInfo",
      "outputs": [],
      "stateMutability": "nonpayable",
      "type": "function"
    },
    {
      "inputs": [],
      "name": "withdraw",
      "outputs": [],
      "stateMutability": "nonpayable",
      "type": "function"
    },
    {
      "stateMutability": "payable",
      "type": "receive"
    }
  ],
  "bytecode": "0x608060405234801561001057600080fd5b50336000806101000a81548173ffffffffffffffffffffffffffffffffffffffff021916908373ffffffffffffffffffffffffffffffffffffffff1602179055506118ff806100606000396000f3fe60806040526004361061008a5760003560e01c80636f77926b116100595780636f77926b146101745780638da5cb5b146101b1578063b90d3d0c146101dc578063d0e30db01461021d578063dc5ea0db14610227576100ca565b80633ccfd60b146100cc5780634fc778b3146100e35780635f9e5cfa1461010c57806368f3625614610149576100ca565b366100ca577fe1fffcc4923d04b559f4d29a8bfc6cda04eb5b0d3c460751c2402c5c5cc9109c33346040516100c09291906112f7565b60405180910390a1005b005b3480156100d857600080fd5b506100e1610250565b005b3480156100ef57600080fd5b5061010a60048036038101906101059190610fd2565b6103f1565b005b34801561011857600080fd5b50610133600480360381019061012e9190610fa9565b610712565b60405161014091906112dc565b60405180910390f35b34801561015557600080fd5b5061015e610751565b60405161016b9190611320565b60405180910390f35b34801561018057600080fd5b5061019b60048036038101906101969190610f80565b61075e565b6040516101a891906114af565b60405180910390f35b3480156101bd57600080fd5b506101c6610981565b6040516101d391906112dc565b60405180910390f35b3480156101e857600080fd5b5061020360048036038101906101fe9190610f80565b6109a5565b60405161021495949392919061133b565b60405180910390f35b610225610b73565b005b34801561023357600080fd5b5061024e60048036038101906102499190610fd2565b610b75565b005b60008054906101000a900473ffffffffffffffffffffffffffffffffffffffff1673ffffffffffffffffffffffffffffffffffffffff163373ffffffffffffffffffffffffffffffffffffffff16146102de576040517f08c379a00000000000000000000000000000000000000000000000000000000081526004016102d59061140f565b60405180910390fd5b60004711610321576040517f08c379a00000000000000000000000000000000000000000000000000000000081526004016103189061148f565b60405180910390fd5b60008060009054906101000a900473ffffffffffffffffffffffffffffffffffffffff1673ffffffffffffffffffffffffffffffffffffffff1647604051610368906112c7565b60006040518083038185875af1925050503d80600081146103a5576040519150601f19603f3d011682016040523d82523d6000602084013e6103aa565b606091505b50509050806103ee576040517f08c379a00000000000000000000000000000000000000000000000000000000081526004016103e5906113ef565b60405180910390fd5b50565b8073ffffffffffffffffffffffffffffffffffffffff163373ffffffffffffffffffffffffffffffffffffffff161461045f576040517f08c379a00000000000000000000000000000000000000000000000000000000081526004016104569061142f565b60405180910390fd5b600073ffffffffffffffffffffffffffffffffffffffff168173ffffffffffffffffffffffffffffffffffffffff1614156104cf576040517f08c379a00000000000000000000000000000000000000000000000000000000081526004016104c69061146f565b60405180910390fd5b6000600260008373ffffffffffffffffffffffffffffffffffffffff1673ffffffffffffffffffffffffffffffffffffffff1681526020019081526020016000206000015414610554576040517f08c379a000000000000000000000000000000000000000000000000000000000815260040161054b9061144f565b60405180910390fd5b6001819080600181540180825580915050600190039060005260206000200160009091909190916101000a81548173ffffffffffffffffffffffffffffffffffffffff021916908373ffffffffffffffffffffffffffffffffffffffff160217905550600060016105c3610751565b6105cd919061155f565b90506040518060a0016040528060016105e4610751565b6105ee919061155f565b815260200187815260200186815260200185815260200184815250600260008473ffffffffffffffffffffffffffffffffffffffff1673ffffffffffffffffffffffffffffffffffffffff16815260200190815260200160002060008201518160000155602082015181600101556040820151816002019080519060200190610678929190610e1c565b506060820151816003019080519060200190610695929190610e1c565b5060808201518160040190805190602001906106b2929190610e1c565b509050508173ffffffffffffffffffffffffffffffffffffffff1681877f515ffe1479843aca1ecc4defb81685af2bd7306e768239e2926e37d66acca00b888888604051610702939291906113a3565b60405180910390a4505050505050565b6001818154811061072257600080fd5b906000526020600020016000915054906101000a900473ffffffffffffffffffffffffffffffffffffffff1681565b6000600180549050905090565b610766610ea2565b600260008373ffffffffffffffffffffffffffffffffffffffff1673ffffffffffffffffffffffffffffffffffffffff1681526020019081526020016000206040518060a001604052908160008201548152602001600182015481526020016002820180546107d49061167b565b80601f01602080910402602001604051908101604052809291908181526020018280546108009061167b565b801561084d5780601f106108225761010080835404028352916020019161084d565b820191906000526020600020905b81548152906001019060200180831161083057829003601f168201915b505050505081526020016003820180546108669061167b565b80601f01602080910402602001604051908101604052809291908181526020018280546108929061167b565b80156108df5780601f106108b4576101008083540402835291602001916108df565b820191906000526020600020905b8154815290600101906020018083116108c257829003601f168201915b505050505081526020016004820180546108f89061167b565b80601f01602080910402602001604051908101604052809291908181526020018280546109249061167b565b80156109715780601f1061094657610100808354040283529160200191610971565b820191906000526020600020905b81548152906001019060200180831161095457829003601f168201915b5050505050815250509050919050565b60008054906101000a900473ffffffffffffffffffffffffffffffffffffffff1681565b60026020528060005260406000206000915090508060000154908060010154908060020180546109d49061167b565b80601f0160208091040260200160405190810160405280929190818152602001828054610a009061167b565b8015610a4d5780601f10610a2257610100808354040283529160200191610a4d565b820191906000526020600020905b815481529060010190602001808311610a3057829003601f168201915b505050505090806003018054610a629061167b565b80601f0160208091040260200160405190810160405280929190818152602001828054610a8e9061167b565b8015610adb5780601f10610ab057610100808354040283529160200191610adb565b820191906000526020600020905b815481529060010190602001808311610abe57829003601f168201915b505050505090806004018054610af09061167b565b80601f0160208091040260200160405190810160405280929190818152602001828054610b1c9061167b565b8015610b695780601f10610b3e57610100808354040283529160200191610b69565b820191906000526020600020905b815481529060010190602001808311610b4c57829003601f168201915b5050505050905085565b565b8073ffffffffffffffffffffffffffffffffffffffff163373ffffffffffffffffffffffffffffffffffffffff1614610be3576040517f08c379a0000000000000000000000000000000000000000000000000000000008152600401610bda9061142f565b60405180910390fd5b6000600260008373ffffffffffffffffffffffffffffffffffffffff1673ffffffffffffffffffffffffffffffffffffffff168152602001908152602001600020600001541415610c69576040517f08c379a0000000000000000000000000000000000000000000000000000000008152600401610c609061144f565b60405180910390fd5b6040518060a00160405280600260008473ffffffffffffffffffffffffffffffffffffffff1673ffffffffffffffffffffffffffffffffffffffff16815260200190815260200160002060000154815260200186815260200185815260200184815260200183815250600260008373ffffffffffffffffffffffffffffffffffffffff1673ffffffffffffffffffffffffffffffffffffffff16815260200190815260200160002060008201518160000155602082015181600101556040820151816002019080519060200190610d41929190610e1c565b506060820151816003019080519060200190610d5e929190610e1c565b506080820151816004019080519060200190610d7b929190610e1c565b509050508073ffffffffffffffffffffffffffffffffffffffff16600260008373ffffffffffffffffffffffffffffffffffffffff1673ffffffffffffffffffffffffffffffffffffffff16815260200190815260200160002060000154867f515ffe1479843aca1ecc4defb81685af2bd7306e768239e2926e37d66acca00b878787604051610e0d939291906113a3565b60405180910390a45050505050565b828054610e289061167b565b90600052602060002090601f016020900481019282610e4a5760008555610e91565b82601f10610e6357805160ff1916838001178555610e91565b82800160010185558215610e91579182015b82811115610e90578251825591602001919060010190610e75565b5b509050610e9e9190610ed1565b5090565b6040518060a0016040528060008152602001600081526020016060815260200160608152602001606081525090565b5b80821115610eea576000816000905550600101610ed2565b5090565b6000610f01610efc846114f6565b6114d1565b905082815260208101848484011115610f1957600080fd5b610f24848285611639565b509392505050565b600081359050610f3b8161189b565b92915050565b600082601f830112610f5257600080fd5b8135610f62848260208601610eee565b91505092915050565b600081359050610f7a816118b2565b92915050565b600060208284031215610f9257600080fd5b6000610fa084828501610f2c565b91505092915050565b600060208284031215610fbb57600080fd5b6000610fc984828501610f6b565b91505092915050565b600080600080600060a08688031215610fea57600080fd5b6000610ff888828901610f6b565b955050602086013567ffffffffffffffff81111561101557600080fd5b61102188828901610f41565b945050604086013567ffffffffffffffff81111561103e57600080fd5b61104a88828901610f41565b935050606086013567ffffffffffffffff81111561106757600080fd5b61107388828901610f41565b925050608061108488828901610f2c565b9150509295509295909350565b61109a816115f3565b82525050565b6110a981611605565b82525050565b6110b881611605565b82525050565b60006110c982611527565b6110d3818561153d565b93506110e3818560208601611648565b6110ec8161176b565b840191505092915050565b600061110282611527565b61110c818561154e565b935061111c818560208601611648565b6111258161176b565b840191505092915050565b600061113d600f8361154e565b91506111488261177c565b602082019050919050565b6000611160600483611532565b915061116b826117a5565b600482019050919050565b600061118360098361154e565b915061118e826117ce565b602082019050919050565b60006111a660078361154e565b91506111b1826117f7565b602082019050919050565b60006111c9600c8361154e565b91506111d482611820565b602082019050919050565b60006111ec60118361154e565b91506111f782611849565b602082019050919050565b600061120f60168361154e565b915061121a82611872565b602082019050919050565b600060a08301600083015161123d60008601826110a0565b50602083015161125060208601826112a9565b506040830151848203604086015261126882826110be565b9150506060830151848203606086015261128282826110be565b9150506080830151848203608086015261129c82826110be565b9150508091505092915050565b6112b28161162f565b82525050565b6112c18161162f565b82525050565b60006112d282611153565b9150819050919050565b60006020820190506112f16000830184611091565b92915050565b600060408201905061130c6000830185611091565b61131960208301846112b8565b9392505050565b600060208201905061133560008301846110af565b92915050565b600060a08201905061135060008301886110af565b61135d60208301876112b8565b818103604083015261136f81866110f7565b9050818103606083015261138381856110f7565b9050818103608083015261139781846110f7565b90509695505050505050565b600060608201905081810360008301526113bd81866110f7565b905081810360208301526113d181856110f7565b905081810360408301526113e581846110f7565b9050949350505050565b6000602082019050818103600083015261140881611130565b9050919050565b6000602082019050818103600083015261142881611176565b9050919050565b6000602082019050818103600083015261144881611199565b9050919050565b60006020820190508181036000830152611468816111bc565b9050919050565b60006020820190508181036000830152611488816111df565b9050919050565b600060208201905081810360008301526114a881611202565b9050919050565b600060208201905081810360008301526114c98184611225565b905092915050565b60006114db6114ec565b90506114e782826116ad565b919050565b6000604051905090565b600067ffffffffffffffff8211156115115761151061173c565b5b61151a8261176b565b9050602081019050919050565b600081519050919050565b600081905092915050565b600082825260208201905092915050565b600082825260208201905092915050565b600061156a82611605565b915061157583611605565b9250817f7fffffffffffffffffffffffffffffffffffffffffffffffffffffffffffffff038313600083121516156115b0576115af6116de565b5b817f80000000000000000000000000000000000000000000000000000000000000000383126000831216156115e8576115e76116de565b5b828201905092915050565b60006115fe8261160f565b9050919050565b6000819050919050565b600073ffffffffffffffffffffffffffffffffffffffff82169050919050565b6000819050919050565b82818337600083830152505050565b60005b8381101561166657808201518184015260208101905061164b565b83811115611675576000848401525b50505050565b6000600282049050600182168061169357607f821691505b602082108114156116a7576116a661170d565b5b50919050565b6116b68261176b565b810181811067ffffffffffffffff821117156116d5576116d461173c565b5b80604052505050565b7f4e487b7100000000000000000000000000000000000000000000000000000000600052601160045260246000fd5b7f4e487b7100000000000000000000000000000000000000000000000000000000600052602260045260246000fd5b7f4e487b7100000000000000000000000000000000000000000000000000000000600052604160045260246000fd5b6000601f19601f8301169050919050565b7f43616e6e6f742077697468647261770000000000000000000000000000000000600082015250565b7f3078303000000000000000000000000000000000000000000000000000000000600082015250565b7f4e6f74204f776e65720000000000000000000000000000000000000000000000600082015250565b7f4e6f7420796f7500000000000000000000000000000000000000000000000000600082015250565b7f5573657220657869737465640000000000000000000000000000000000000000600082015250565b7f4e6f742065786973742061646472657373000000000000000000000000000000600082015250565b7f436f6e74726163742068617665206e6f20657468657200000000000000000000600082015250565b6118a4816115f3565b81146118af57600080fd5b50565b6118bb8161162f565b81146118c657600080fd5b5056fea2646970667358221220a90ea2e7cd05bbd841a1ab7491ab60e42f764966b4b77a7470a6ccbf5cb0ae6d64736f6c63430008040033",
  "linkReferences": {},
  "deployedLinkReferences": {}
}